S01700004763634170706C69636174696F6E312E737265635B
S11300000C942A000C9434000C9434000C943400A6
S11300100C9434000C9434000C9434000C9434008C
S11300200C9434000C9434000C9434000C9434007C
S11300300C9434000C9434000C9434000C9434006C
S11300400C9434000C9434000C9434000C9434005C
S11300500C94340011241FBECFE5D8E0DEBFCDBF21
S11300600E9436000C9452000C94000080E38ABB7A
S11300708BBB80E090E02FE33DE043E02150304033
S11300804040E1F700C00000009719F020E22BBBCC
S113009002C020E12BBB21E030E0A901481B590B31
S10B00A0CA01E9CFF894FFCF77
S9030000FC
