S0120000446F74204D61747269782E7372656356
S11300000C942A000C943F000C943F000C943F0085
S11300100C943F000C943F000C943F000C943F0060
S11300200C943F000C943F000C943F000C943F0050
S11300300C943F000C943F000C943F000C943F0040
S11300400C943F000C943F000C943F000C943F0030
S11300500C943F0011241FBECFE5D8E0DEBFCDBF16
S113006010E0A0E6B0E0EEEAF1E002C005900D92E7
S1130070A03FB107D9F70E94C7000C94D5000C9497
S11300800000A0E0B0E061E070E038C0FD01EE0FD8
S1130090FF1FEE0FFF1FEE0FFF1FE80FF91FEE0FFC
S11300A0FF1FE05AFF4F20813181232B51F021E0C3
S11300B030E0082E02C0220F331F0A94E2F7420FE9
S11300C0531F019604C080E090E040E050E0883087
S11300D09105E4F280E090E005C0262F209522BB34
S11300E04BBB0196883C9105C4F383EF91E00197E3
S11300F0F1F700C00000660F771F1196A830B10514
S113010014F3089528E030E028C0F9013197EE0F88
S1130110FF1FEE0FFF1FEE0FFF1FE80FF91FEE0F7B
S1130120FF1FE05AFF4F40815181F901EE0FFF1F7D
S1130130EE0FFF1FEE0FFF1FE80FF91FEE0FFF1F5B
S1130140E05AFF4F51834083019602C080E090E063
S113015088309105D4F22150310912161306B4F3F4
S113016088E090E011C0FC01E05CFF4FEE0FFF1F40
S1130170E05AFF4F20813181FC01EE0FFF1FE05A4E
S1130180FF4F31832083019799236CF708958FEFF4
S11301908ABB81BB0E94410087EA91E60197F1F78F
S11101A000C000000E948200F5CFF894FFCF4B
S11301AE000000000100010000000000000000003B
S11301BE000000000100000001000000000000002B
S11301CE000000000100000001000000000000001B
S11301DE000000000100010000000000000000000B
S11301EE00000000010000000100000000000000FB
S11301FE00000000010000000100000000000000EB
S113020E00000000010001000000000000000000DA
S113021E00000000000000000000000000000000CC
S113022E00000000000000000000000000000000BC
S9030000FC
